:09000000020FA912143B02130ABD
:10000B00020A68E709F608DFFA8046E709F208DF1B
:10001B00FA803E88828C83E709F0A3DFFA8032E313
:10002B0009F608DFFA8078E309F208DFFA807088B6
:10003B00828C83E309F0A3DFFA806489828A83E0F0
:10004B00A3F608DFFA805889828A83E0A3F208DFDF
:10005B00FA804C80D280FA80C680D4806980F2808E
:10006B0033801080A680EA809A80A880DA80E280B4
:10007B00CA803389828A83ECFAE493A3C8C582C809
:10008B00CCC583CCF0A3C8C582C8CCC583CCDFE973
:10009B00DEE7800D89828A83E493A3F608DFF9EC0F
:1000AB00FAA9F0EDFB2289828A83ECFAE0A3C8C59A
:1000BB0082C8CCC583CCF0A3C8C582C8CCC583CCC1
:1000CB00DFEADEE880DB89828A83E493A3F208DF30
:1000DB00F980CC88F0EF60010E4E60C388F0ED2400
:1000EB0002B4040050B9F582EB2402B4040050AF03
:1000FB00232345822390005E73BB010689828A838A
:10010B00E0225002E722BBFE02E32289828A83E4CB
:10011B009322BB010CE58229F582E5833AF583E056
:10012B00225006E92582F8E622BBFE06E92582F875
:10013B00E222E58229F582E5833AF583E49322BB3B
:10014B000111F8E58229F582E5833AF583E0C828A9
:10015B00F0E8225009C58229F8C58226C622BBFECB
:10016B000DC58229F8E2C5822582F2E58222EA25B5
:10017B0083F583E99322BB010FF8E58229F582E52C
:10018B00833AF583E028F0225009C58229F8E582ED
:10019B0026F622BBFE09C58229F8E22582F222F857
:1001AB00EA2583F583E9932822BB010689828A839A
:1001BB00F0225002F722BBFE01F322F8BB010DE542
:1001CB008229F582E5833AF583E8F0225006E9258A
:1001DB0082C8F622BBFE05E92582C8F222C5F0F8DB
:1001EB00A3E028F0C5F0F8E582158270021583E0D4
:1001FB0038F022A3F8E0C5F025F0F0E58215827007
:10020B00021583E0C838F0E822BB010A89828A8391
:10021B00E0F5F0A3E022500687F009E71922BBFEB8
:10022B0007E3F5F009E3192289828A83E493F5F059
:10023B0074019322BB0110E58229F582E5833AF51F
:10024B0083E0F5F0A3E0225009E92582F886F00857
:10025B00E622BBFE0AE92582F8E2F5F008E222E588
:10026B00832AF583E993F5F0A3E99322BB010DC52E
:10027B008229C582C5833AC5830201E85011C58224
:10028B0029F808E5F026F618F5F0E58236F622BBDC
:10029B00FE11C58229F808E225F0F5F0F218E235D7
:1002AB0082F222F8E58229F582E5832AF58374012F
:1002BB009325F0F5F0E4933822BB010A89828A83F7
:1002CB00F0E5F0A3F0225006F709A7F01922BBFEC8
:1002DB0006F3E5F009F31922F8BB0111E58229F5C4
:1002EB0082E5833AF583E8F0E5F0A3F0225009E9C3
:1002FB002582C8F608A6F022BBFE09E92582C8F2C2
:10030B00E5F008F222E88FF0A4CC8BF0A42CFCE9EA
:10031B008EF0A42CFC8AF0EDA42CFCEA8EF0A4CD7C
:10032B00A8F08BF0A42DCC3825F0FDE98FF0A42C90
:10033B00CD35F0FCEB8EF0A4FEA9F0EB8FF0A4CF43
:10034B00C5F02ECD39FEE43CFCEAA42DCE35F0FDF4
:10035B00E43CFC2275F008758200EF2FFFEE33FEB4
:10036B00CD33CDCC33CCC58233C5829BED9AEC9982
:10037B00E58298400CF582EE9BFEED9AFDEC99FC24
:10038B000FD5F0D6E4CEFBE4CDFAE4CCF9A882226B
:10039B00B800C1B90059BA002DEC8BF084CFCECD8B
:1003AB00FCE5F0CBF97818EF2FFFEE33FEED33FDC4
:1003BB00EC33FCEB33FB10D703994004EB99FB0FA9
:1003CB00D8E5E4F9FA227818EF2FFFEE33FEED3380
:1003DB00FDEC33FCC933C910D7059BE99A4007ECF8
:1003EB009BFCE99AF90FD8E0E4C9FAE4CCFB22753F
:1003FB00F010EF2FFFEE33FEED33FDCC33CCC833D3
:10040B00C810D7079BEC9AE899400AED9BFDEC9A34
:10041B00FCE899F80FD5F0DAE4CDFBE4CCFAE4C8AC
:10042B00F922E8600FECC313FCED13FDEE13FEEFA6
:10043B0013FFD8F122BB010DE58229F582E5833A42
:10044B00F5830206385007E92582F802062CBBFE1D
:10045B0007E92582F8020644E58229F582E5833A0D
:10046B00F583020650BB010DE58229F582E5833A3F
:10047B00F5830204C45007E92582F8020696BBFEF9
:10048B0007E92582F80206A222BB010DE58229F5B8
:10049B0082E5833AF58302066D5007E92582F8025F
:1004AB000660BBFE07E92582F8020679E58229F58D
:1004BB0082E5833AF583020686ECF0A3EDF0A3EE1A
:1004CB00F0A3EFF022A8828583F0D083D0821204B0
:1004DB00E71204E71204E71204E7E473E493A3C5FD
:1004EB0083C5F0C583C8C582C8F0A3C583C5F0C555
:1004FB0083C8C582C822BB010789828A830206C0D2
:10050B005005E9F80206AEBBFE05E9F80206D289F2
:10051B00828A830206E4BB011A89828A83D0F0D0D7
:10052B00E0F8D0E0F9D0E0FAD0E0FBE8C0E0C0F0B2
:10053B000206C95016E9F8D083D082D0E0F9D0E09A
:10054B00FAD0E0FBC082C0830206B7BBFE16E9F807
:10055B00D083D082D0E0F9D0E0FAD0E0FBC082C0EB
:10056B00830206DB22BB010DE58229F582E5833A86
:10057B00F5830206C05007E92582F80206AEBBFEE2
:10058B0007E92582F80206D2E58229F582E5833A4E
:10059B00F5830206E4BB0120E58229F582E5833A67
:1005AB00F583D0F0D0E0F8D0E0F9D0E0FAD0E0FB62
:1005BB00E8C0E0C0F00206C95018E92582F8D083E4
:1005CB00D082D0E0F9D0E0FAD0E0FBC082C0830249
:1005DB0006B7BBFE18E92582F8D083D082D0E0F9AC
:1005EB00D0E0FAD0E0FBC082C0830206DB228A8314
:1005FB008982E473EC8EF0A4CCC5F0CCCDF8EFA4DB
:10060B00CEC5F02DFDE43CFCE8A42EC8C5F03DFDA5
:10061B00E43CFCEFA4FFE5F028FEE43DFDE43CFCEC
:10062B0022E6FC08E6FD08E6FE08E6FF22E0FCA356
:10063B00E0FDA3E0FEA3E0FF22E2FC08E2FD08E2FE
:10064B00FE08E2FF22E493FC740193FD740293FE17
:10065B00740393FF22E6FB08E6F908E6FA08E6CBFB
:10066B00F822E0F8A3E0F9A3E0FAA3E0FB22E2FB17
:10067B0008E2F908E2FA08E2CBF822E493F87401F5
:10068B0093F9740293FA740393FB22ECF608EDF6DC
:10069B0008EEF608EFF622ECF208EDF208EEF2089F
:1006AB00EFF222E6FB08E6FA08E6F922EBF608EA97
:1006BB00F608E9F622E0FBA3E0FAA3E0F922EBF05F
:1006CB00A3EAF0A3E9F022E2FB08E2FA08E2F9223E
:1006DB00EBF208EAF208E9F222E493FB740193FAD5
:1006EB00740293F92290026EEBF0A3EAF0A3E9F007
:1006FB0012142890027BEFF012144890027CEBF05E
:10070B00A3EAF0A3E9F090027BE0D3940474809405
:10071B00804009900277E0700302091490027BE09D
:10072B00602FA3E0FBA3E0FAA3E0F990027BE014B7
:10073B00F075F003A4F58285F083120570120501A4
:10074B0090000512011DFF900277E0B507CE02095C
:10075B0014050BC2AF90026EE0FBA3E0FAA3E0F925
:10076B007D0C7C00120EFBC003C002C00190026E18
:10077B00E0FBA3E0FAA3E0F912052190026EE0FB87
:10078B00A3E0FAA3E0F9120501E94A4B7003020951
:10079B001490026EE0FBA3E0FAA3E0F9E4FD120C67
:1007AB00B2900271E0FBA3E0FAA3E0F9C003C00230
:1007BB00C00190026EE0FBA3E0FAA3E0F912050181
:1007CB009000021205A0900278E0FEA3E0FF9002D9
:1007DB006EE0FBA3E0FAA3E0F9120501900009EE2D
:1007EB008FF01202E390027AE090000B1201C69098
:1007FB000277E09000051201C6900006E41201C6D4
:10080B00900278E475F0011201FE85F082F5837495
:10081B000FF0900271A3E0FAA3E0AE02FD90027814
:10082B00E475F0011201FE85F082F583EDF0EEFF29
:10083B00900278E0FCA3E0F5828C83EFF0E4900269
:10084B007BF090027BE0C3940B74809480501990E2
:10085B000278E475F0011201E885F082F583E4F08B
:10086B0090027BE004F080DA900274E0FBA3E0FAE4
:10087B00A3E0F9FF900278E475F0011201FE85F018
:10088B0082F583EFF0AF01AE02AD037C0078081266
:10089B00042D900278E475F0011201FE85F082F5CB
:1008AB0083EFF0AF01AE02AD037C00781012042D84
:1008BB00900278E0FCA3E0F5828C83EFF090026E5F
:1008CB00E0FBA3E0FAA3E0F9900225E0FF04F0EFD0
:1008DB0075F003A42419F582E43402F583EBF0A33D
:1008EB00EAF0A3E9F0D50B02D2AF900216E0FBA31E
:1008FB00E0FAA3E04A4B6003120BB390026EE0FBED
:10090B00A3E0FAA3E0F90205017B007A007900224B
:10091B0090026AEBF0A3EAF0A3E9F0121046900202
:10092B006D1204C4C28C90026AE0FBA3E0FAA3E050
:10093B00F990000112011D25E025E0FFE58954FB2C
:10094B004FF58990000212011DFFE58954FC4FF50C
:10095B008990000312011D7F0070027F01EFC433E9
:10096B0033335480FFE58E547F4FF58E90026AE04F
:10097B00FBA3E0FAA3E0F99000051204947F407EFC
:10098B00427D0F7C0012039BC004C005C006C0074C
:10099B00E58E7F0020E7027F01EF75F00BA42401A9
:1009AB00FFE435F0FE3395E0FDFCD003D002D0011F
:1009BB00D000120310A804A905AA06AB0790026D7C
:1009CB00E0FCA3E0FDA3E0FEA3E0FF12039BC3E466
:1009DB009FFFE49EFE74019DFDE49CFC90026AE087
:1009EB00FBA3E0FAA3E0F990000512047090000558
:1009FB0012044090029A1204C490000212011D646A
:100A0B000290026A7014E0FBA3E0FAA3E0F99000F5
:100A1B00051204408F8A8F8C801DE0FBA3E0FAA3A4
:100A2B00E0F99000051204408F8A900005120440F3
:100A3B00780812042D8F8C90026AE0FBA3E0FAA3D6
:100A4B00E0F990000412011DFFE58F54FE4FF58F66
:100A5B0090000912011D24FF928C7F0022C0E0C080
:100A6B00F0C083C082C0D075D000C000C001C002EE
:100A7B00C003C004C005C006C007E4FC050BC2AF31
:100A8B00900232E07003020B52E4FFEFC394037445
:100A9B008094804003020B52EF75F003A42426F5DB
:100AAB0082E43402F583E0FBA3E0FAA3E04A4B7047
:100ABB0003020B4EEF75F003A42426F582E43402F7
:100ACB00F583E0FBA3E0FAA3E0F912050190000720
:100ADB0074FFF5F012027745F07068EF75F003A420
:100AEB002426F582E43402F583E0FBA3E0FAA3E0CD
:100AFB00F9120501900006E41201C6EF75F003A48C
:100B0B002426F582E43402F583E0FBA3E0FAA3E0AC
:100B1B00F9900225E0FE04F0EE75F003A42419F51C
:100B2B0082E43402F583EBF0A3EAF0A3E9F0EF756E
:100B3B00F003A42426F582E43402F583E4F0A3F059
:100B4B00A3F00C0F020A96900232E0C39CF0EC600B
:100B5B00377B007A00790012120412050190000510
:100B6B0012011DFF900216E0FBA3E0FAA3E0F912BD
:100B7B00050190000512011DFEEFD39E400A900067
:100B8B0006E41201C6120BB3D50B02D2AFD007D0BD
:100B9B0006D005D004D003D002D001D000D0D0D0E5
:100BAB0082D083D0F0D0E032C0E0C0F0C083C082EE
:100BBB00C0D0C000C004C005C006C007C001C00241
:100BCB00C003C081900216E0FBA3E0FAA3E0F91288
:100BDB00050190000912023F85F008F5097F0D759C
:100BEB000A0DC3E581940D14780CF6E68509828510
:100BFB000883F0780CE6166017050AA80AE6FF05CD
:100C0B0009E50970020508F582850883EFF080E39A
:100C1B00900216E0FBA3E0FAA3E0F9120D7F7B0133
:100C2B007A027983121204900216EBF0A3EAF0A376
:100C3B00E9F0900283E0FF900225E014FDF0121220
:100C4B00C9900216E0FBA3E0FAA3E0F912050190AC
:100C5B00000674041201C690000912023F85F008C9
:100C6B00F509750A0DF582850883E0780CF6780C8A
:100C7B00E61660150509E50970020508F582850879
:100C8B0083E0050AA80AF680E5850A81D003D00225
:100C9B00D001D007D006D005D004D000D0D0D08260
:100CAB00D083D0F0D0E02290027FEBF0A3EAF0A348
:100CBB00E9F0A3EDF0E4FFFE9002A9E0FBA3E0FA5C
:100CCB00A3E0F990000C12011DFDEEC39D5027907F
:100CDB0002A9E0FBA3E0FAA3E0F975F003EEA4F59B
:100CEB008285F083120570120501120104AC070F07
:100CFB00B504030E80C290027FE0FBA3E0FAA3E0F1
:100D0B00F9120501EF1201B4900282E0FF90027F0D
:100D1B00E0FBA3E0FAA3E0F9120501900001EF124A
:100D2B0001C690027FE0FBA3E0FAA3E0F9C003C089
:100D3B0002C0019002A9E0FBA3E0FAA3E0F9C00313
:100D4B00C002C0019002A9E0FBA3E0FAA3E0F99076
:100D5B00000C740112014A75F003A4F58285F0832F
:100D6B00D001D002D0031205A07F0022E0FBA3E04C
:100D7B00FAA3E0F9900287EBF0A3EAF0A3E9F0E421
:100D8B00FF12050190000612011D14602A146075F4
:100D9B0024026003020E38900287E0FBA3E0FAA363
:100DAB00E0F9900225E0FF04F0EF75F003A424199D
:100DBB00F582E43402806CEFC39404748094805009
:100DCB006CEF75F003A42426F582E43402F583E07E
:100DDB00FBA3E0FAA3E04A4B7028900287E0FBA349
:100DEB00E0FAA3E0F9EF75F003A42426F582E434CE
:100DFB0002F583EBF0A3EAF0A3E9F0900232E004F2
:100E0B00F0220F80B2900287E0FBA3E0FAA3E0F997
:100E1B0090023FE0FF04F0EF75F003A42433F5825A
:100E2B00E43402F583EBF0A3EAF0A3E9F02290029D
:100E3B008A7401F0C2C090026374FFF0A37414F0C3
:100E4B00A37454F0A37401F0A37402F0A3748AF09A
:100E5B00A37401F0A3F0A37402F0A37494F0A37431
:100E6B0014F07B017A02798B1210E390028BEBF07A
:100E7B00A3EAF0A3E9F090026374FFF0A37414F0FB
:100E8B00A37460F0A3E4F0A3F0A3F0A37402F07BCF
:100E9B0001A314F0A37402F0A37496F0A37414F0DE
:100EAB007A02798E1210E390028EEBF0A3EAF0A394
:100EBB00E9F090026374FFF0A37414F0A3746CF068
:100ECB00A3E4F0A3F0A3F0A37403F0A37401F0A3C5
:100EDB007402F0A37498F0A37414F07B017A027976
:100EEB00911210E3900291EBF0A3EAF0A3E9F02248
:100EFB0090027FEBF0A3EAF0A3E9F0C3EC9402407D
:100F0B00077B007A00790022050BC2AF90000474B6
:100F1B00FF75F0F81201E890027FE0FBA3E0FAA363
:100F2B00E0F9C003C002C001900003E0FBA3E0FAAC
:100F3B00A3E0F9120521900000E0FBA3E0FAA3E087
:100F4B00F9C003C002C001A3E0FBA3E0FAA3E0F9E0
:100F5B009000031205A0900003E0FBA3E0FAA3E0CE
:100F6B00F9900006EC8DF01202E3900000E0FBA379
:100F7B00E0FAA3E0F9900001EC8DF01201E8ED240A
:100F8B0008FFE43CFEC3900008E09FF0900007E0F0
:100F9B009EF0900006E004F0D50B02D2AF2278ED64
:100FAB00E4F6D8FD9000007FFF7E1DE4F0A3DFFC8C
:100FBB00DEFA75814C12127B021001021483E4934A
:100FCB00A3F8E493A34003F68001F208DFF4802931
:100FDB00E493A3F85407240CC8C333C4540F442020
:100FEB00C8834004F456800146F6DFE4800B01020F
:100FFB00040810204080901344E47E019360BCA34E
:10100B00FF543F30E509541FFEE493A360010ECF5C
:10101B0054C025E060A840B8E493A3FAE493A3F886
:10102B00E493A3C8C582C8CAC583CAF0A3C8C58246
:10103B00C8CAC583CADFE9DEE780BEE59D603178AB
:10104B00FAE6FBAF9FC3EF9BFFE49400FEE4940032
:10105B00FDE49400FC7BE07A287901780012031000
:10106B00E42FFFEE3451FEED3425FDEC3402802EDF
:10107B0078FBE6FBAF9FC3EF9BFFE49400FEE49489
:10108B0000FDE49400FCE47B807ABBF9F8120310BA
:10109B00E42FFFEE3436FEED346EFDEC3401FC90A4
:1010AB0002711204C4900271E0FCA3E0FDA3E0FE08
:1010BB00A3E0FFC00790FE01E0FBE4FAF9F8D007CC
:1010CB0012039B9002711204C4900271E0FCA3E026
:1010DB00FDA3E0FEA3E0FF22900260EBF0A3EAF099
:1010EB00A3E9F090026AE0FBA3E0FAA3E0F9A3E026
:1010FB00FD7C00120EFBAE02AF0190026AE0FBA377
:10110B00E0FAA3E0F9EE8FF01202C4900263E0F96B
:10111B00A3E0FAA3E0900271C9F0A3EAF0A3E9F00F
:10112B00900266E0F9A3E0FAA3E0900274C9F0A381
:10113B00EAF0A3E9F0900269E0900277F090026A7E
:10114B00E0FBA3E0FAA3E0F9120214FF900278E5AA
:10115B00F0F0A3EFF090026DE090027AF090026055
:10116B00E0FBA3E0FAA3E0F90206F07B017A027937
:10117B0060121204900216EBF0A3EAF0A3E9F090D0
:10118B000260E0FF900225E014FDF01212C99002FC
:10119B0016E0FBA3E0FAA3E0F91205019000067438
:1011AB00041201C690000912023F85F008F509757B
:1011BB000A0DF582850883E0780CF6780CE616604C
:1011CB00150509E50970020508F582850883E00518
:1011DB000AA80AF680E5850A81D003D002D001D097
:1011EB0007D006D005D004D000D0D0D082D083D089
:1011FB00F0D0E0D50B02D2AF22900284EBF0A3EA41
:10120B00F0A3E9F0E4FFFE1201B4900225E0FDEF3C
:10121B00C39D5038EF75F003A42419F582E4340212
:10122B00F583E0FBA3E0FAA3E0F9120501900005BA
:10123B0012011DFDD39E4011AE05900284E0FBA36D
:10124B00E0FAA3E0F9EF1201B40F80BE900284E044
:10125B00FBA3E0FAA3E0F912010475F003A424192F
:10126B00F582E43402F583E0FBA3E0FAA3E0F92274
:10127B00120003050BC2AF1213AA1213F3900271E3
:10128B0074FFF0A37414F0A37413F0A3E4F0A3F0B1
:10129B00A3F0A3F0A37402F0A37440F0A37420F0A6
:1012AB007B017A0279A61206F09002A6EBF0A3EA74
:1012BB00F0A3E9F0120E39121176E4FEFF22ED7560
:1012CB00F003A42419F582E43402F583E0FBA3E0D8
:1012DB00FAA3E0F9EF75F003A42419F582E43402C4
:1012EB00F583EBF0A3EAF0A3E9F0ED75F003A4248A
:1012FB0019F582E43402F583E4F0A3F0A3F022782D
:10130B00607C027D017BFF7A1479947E007F0A1248
:10131B0000DEE4900262F0A304F09002651204D0A8
:10132B00000027109002697401F0FB7A02796012B9
:10133B00091B7D017F030213D344029A00000000B6
:10134B0044029E000000004102AC004102AD0001CE
:10135B000B004102A2004302A30000004D02090052
:10136B0000000000000000000000000041028A00A5
:10137B0000050BC2AF900216E0FBA3E0FAA3E0F965
:10138B00120501900007EE8FF01202E39000067435
:10139B00011201C6D50B02D2AF120BB37F0022E4B0
:1013AB00900006F0A37402F0A3E4F07B0190000020
:1013BB0004F0A37400F0A37409F0A3EBF0A3740280
:1013CB00F0A37409F07F0022ED24FF92A9EF5402E1
:1013DB00FEE5B754FD4EF5B7EF540125E0FFE5B838
:1013EB0054FD4FF5B87F00229002A9E0FBA3E0FA71
:1013FB00A3E0F97D0D7C00120EFB9002A9EBF0A38C
:10140B00EAF0A3E9F07F00229002A3E0FBA3E0FA4D
:10141B00A3E0F9EA494B60F01205F980EB9002A9C1
:10142B00E0FBA3E0FAA3E0F990000C12011DFF22F0
:10143B0075CB0075CCFF75B30075B4FF229002A974
:10144B00E0FBA3E0FAA3E0F92263E8027F327E001F
:10145B0012137C80F463E8047F327E0012137C80CD
:10146B00F463E8087F327E0012137C80F4050BC214
:10147B00AF9002A2EFF080FE7F06121478E4FEFF1D
:10148B00220000000000000000000000000000002F
:0F149B0000000000000000000000000000000042
:00000001FF
